:020000040800F2
:1000000000000220E5380008CD360008CF36000891
:10001000D1360008D3360008D536000800000000AD
:10002000000000000000000000000000D7360008BB
:10003000D936000800000000DB360008DD36000875
:1000400035390008353900083539000835390008D8
:1000500035390008353900083539000835390008C8
:1000600035390008353900083539000835390008B8
:1000700035390008E53600083539000835390008FB
:100080003539000835390008F536000835390008DB
:100090003539000835390008353900083539000888
:1000A0003539000835390008353900083539000878
:1000B0003539000835390008353900083539000868
:1000C000353900080D370008353900083539000882
:1000D000353900081D370008353900083539000862
:1000E0003539000835390008353900083539000838
:1000F0003539000835390008353900082D37000832
:100100003539000835390008353900083539000817
:100110003539000835390008353900083539000807
:1001200035390008353900083D37000835390008F1
:1001300035390008000000000000000035390008D3
:1001400035390008353900083539000835390008D7
:1001500035390008353900084D37000835390008B1
:1001600035390008353900083539000835390008B7
:100170003539000835390008000000000000000093
:0801800035390008353900088B
:1001880010B5054C237833B9044B13B10448AFF3C9
:1001980000800123237010BD14000020000000001F
:1001A8009039000808B5034B1BB103490348AFF366
:1001B800008008BD000000001800002090390008E9
:1001C80053B94AB9002908BF00281CBF4FF0FF31B6
:1001D8004FF0FF3000F072B9ADF1080C6DE904CEB4
:1001E80000F006F8DDF804E0DDE9022304B070470A
:1001F8002DE9F047089E04468846002B4BD18A42D9
:10020800154667D9B2FA82F24AB1C2F1200701FA5B
:1002180002F320FA07F7954047EA030894404FEAAB
:10022800154E230CB8FBFEF71FFA85FC0EFB17884A
:1002380043EA084307FB0CF1994209D9EB1807F187
:10024800FF3080F01B81994240F21881023F2B4415
:100258005B1AA4B2B3FBFEF00EFB103344EA03446E
:1002680000FB0CFCA44509D92C1900F1FF3380F0E0
:100278000781A44540F2048102382C4440EA074033
:10028800A4EB0C0400271EB1D4400023C6E90043A8
:100298003946BDE8F0878B4209D9002E00F0EB8083
:1002A8000027C6E9000138463946BDE8F087B3FAA9
:1002B80083F7002F47D18B4202D3824200F2FA80A3
:1002C800841A61EB030301209846002EE0D0C6E9AA
:1002D8000048DDE702B9FFDEB2FA82F2002A40F0F8
:1002E8008F80491B4FEA154E1FFA85F80127B1FB8D
:1002F800FEFC230C0EFB1C1143EA014308FB0CF126
:10030800994207D9EB180CF1FF3002D2994200F25A
:10031800CD808446591AA3B2B1FBFEF00EFB10142F
:1003280043EA044408FB00F8A04507D92C1900F15A
:10033800FF3302D2A04500F2B6801846A4EB0804A9
:1003480040EA0C409FE7C7F1200CBB4022FA0CFEA4
:100358004EEA030E01FA07F420FA0CF521FA0CF321
:100368004FEA1E482543B3FBF8F92C0C08FB193358
:100378001FFA8EFA44EA034309FB0AF49C4202FA84
:1003880007F200FA07F10BD91EEB030309F1FF305E
:1003980080F087809C4240F28480A9F1020973446E
:1003A8001B1BADB2B3FBF8F008FB103345EA03445E
:1003B80000FB0AFAA24508D91EEB040400F1FF333A
:1003C8006BD2A24569D90238744440EA0940A0FBBF
:1003D8000289A4EB0A044C45C2464B4654D351D07B
:1003E800002E69D0B1EB0A0564EB030404FA0CFC97
:1003F800FD40FC404CEA0505C6E90054002747E7E4
:10040800C2F1200320FA03F7954001FA02F021FA1D
:1004180003F34FEA154E3843010CB3FBFEF71FFAFE
:1004280085F80EFB173341EA034107FB08F38B42BB
:1004380004FA02F407D9691807F1FF3C2FD28B425E
:100448002DD9023F2944CB1A81B2B3FBFEF00EFB33
:10045800103341EA034100FB08F38B4207D96918BE
:1004680000F1FF3C17D28B4215D902382944C91A2A
:1004780040EA07473BE73746304609E70746E7E6DD
:100488001846FBE64145ABD2B8EB020A69EB0E020F
:1004980001381346A4E76046E9E7184695E767463A
:1004A800D1E781467CE702382C4447E7ACF1020CDF
:1004B8002B442FE7384608E73746E9E6704700BF80
:1004C80010B504460E4B18784FF47A73B3FBF0F36B
:1004D8000C4A1068B0FBF3F000F0E4FA68B90F2C8E
:1004E80001D901200AE0002221464FF0FF3000F038
:1004F80097FA034B5C60002000E0012010BD00BFAC
:10050800000000201000002008B50B4B1A6842F4C8
:1005180000721A601A6842F480621A601A6842F41B
:1005280080721A60032000F069FA0020FFF7C8FF04
:1005380003F0ACF8002008BD003C0240034A1168F3
:10054800034B1B780B441360704700BF300000203A
:1005580000000020014B1868704700BF30000020E1
:1005680038B50446FFF7F6FF0546B4F1FF3F02D061
:10057800044B1B781C44FFF7EDFF401BA042FAD345
:1005880038BD00BF000000204A4B5A6822F44032B0
:100598005A605A6841680A435A600268536823F4EB
:1005A8008073536002685368016943EA012353600A
:1005B8000268536823F04073536002685368816887
:1005C8000B4353600268936823F4006393600268E6
:1005D8009368C1680B439360826A374B9A424BD049
:1005E8000268936823F07063936002689368816A75
:1005F8000B4393600268936823F04053936002684A
:100608009368C16A0B4393600268936823F00203FE
:10061800936002689368017E43EA4103936090F80F
:100628002030002B33D10268536823F400635360F1
:100638000268D36A23F47003D3620168CB6AC26983
:10064800013A43EA0253CB620268936823F40073C9
:1006580093600268936890F8301043EA41239360EE
:100668000268936823F48063936002689368416921
:1006780043EA8123936070470268936823F07063AC
:1006880093600268936823F040539360BCE7026864
:10069800536843F4006353600268536823F460436B
:1006A800536001684B68426A013A43EA42334B603F
:1006B800BEE700BF002301400100000F38B310B5AA
:1006C8000446036C43B1236C13F0100F0BD00120C8
:1006D800002384F83C3010BD02F03EFD0023636423
:1006E80084F83C30EFE7236C23F4885323F00203AB
:1006F80043F0020323642046FFF746FF00206064AE
:10070800236C23F0030343F001032364E0E7012093
:10071800704770477047704738B5044602681168DB
:10072800536811F0020F2FD003F0200363B3036C5A
:1007380013F0100F03D1036C43F400730364936840
:1007480013F0405F19D1237EBBB9D36A13F4700F3D
:1007580003D0936813F4806F0FD1536823F02003FC
:100768005360236C23F480732364236C13F4805F39
:1007780003D1236C43F0010323642046FFF7C9FF2C
:1007880023686FF012021A60236819685A6802F029
:10079800800211F0040F36D0002A34D0226C12F0F7
:1007A800100F03D1226C42F4005222649A6812F4AA
:1007B800401F21D19A6B12F4401F03D09A6812F49B
:1007C800806F19D15A6812F4806F15D19A6812F0A7
:1007D800405F11D1227E7AB95A6822F080025A60AD
:1007E800236C23F480532364236C13F4807F03D198
:1007F800236C43F001032364204600F0FDF82368CE
:100808006FF00C021A6022681168536803F0400305
:1008180011F0010F04D01BB1136813F0010F09D1B7
:1008280022681168536803F0806311F0200F00D02C
:1008380063B938BD236C43F4803323642046FFF743
:1008480069FF23686FF001021A60E9E7636C43F0FF
:10085800020363646FF0200515602046FFF75BFF15
:1008680023681D60E5E7000030B482B000230193DF
:1008780090F83C30012B00F0B780012380F83C3021
:100888000B68092B3ED90568EA689BB203EB430362
:100898001E3B072404FA03F322EA0303EB6005680E
:1008A800EA688C680B8803EB43031E3B04FA03F3E6
:1008B8001343EB604B68062B3AD805686A6B03EB69
:1008C8008303053B1F2404FA03F322EA03036B6343
:1008D80005686A6B4B6803EB8303053B0C8804FAD5
:1008E80003F313436B630268404B9A4250D002688B
:1008F8003E4B9A4255D0002380F83C30184602B04F
:1009080030BC704705682A699BB203EB4303072490
:1009180004FA03F322EA03032B6105682A698C6849
:100928000B8803EB430304FA03F313432B61C1E77A
:100938000C2B16D805682A6B03EB8303233B1F2473
:1009480004FA03F322EA03032B6305682A6B4B6856
:1009580003EB8303233B0C8804FA03F313432B6351
:10096800C1E70568EA6A03EB8303413B1F2404FAE5
:1009780003F322EA0303EB620568EA6A4B6803EBB8
:100988008303413B0C8804FA03F31343EB62AAE7A1
:100998000B68122BABD1164A536843F4800353609B
:1009A800A5E70B68103B012BA5D8114A536843F4FF
:1009B800000353600B68102B9DD10E4B1B6802F18E
:1009C800467202F52E3202F28332A2FB03239B0CFD
:1009D80003EB83035A00019202E0019B013B019360
:1009E800019B002BF9D186E7022088E7002001400F
:1009F800002301401000002070470000074AD36818
:100A080023F4E0631B041B0C000200F4E0601843AD
:100A180040F0BF6040F40030D060704700ED00E067
:100A280030B4174BDB68C3F30223C3F10704042C6B
:100A380028BF04241D1D062D18D9033B4FF0FF3590
:100A480005FA04F421EA0401994005FA03F322EABD
:100A58000303194300280BDB0901C9B200F1604008
:100A680000F5614080F8001330BC70470023E5E7CB
:100A780000F00F000901C9B2024B1954F4E700BF96
:100A880000ED00E014ED00E0002807DB00F01F0295
:100A9800400901239340024A42F82030704700BFC2
:100AA80000E100E00138B0F1807F0AD2064B5860BF
:100AB800064AF02182F823100020986007221A6065
:100AC80070470120704700BF10E000E000ED00E033
:100AD8000268D3B2103B0B49A1FB03131B090A4957
:100AE800C95CC165032B06D822F47F7222F0030289
:100AF8008265806D704722F47F7222F0030204320F
:100B08008265F6E7ABAAAAAAA8390008836A8269AF
:100B180092B9012B0AD01BB1022B01D000207047DB
:100B2800C36A13F0807F2CD100207047C36AB3F1E9
:100B3800C07F28D000207047B2F5005F05D0022B97
:100B480029D9032B15D000207047032B03D8DFE8E1
:100B580003F01C041C0A00207047C36A13F0807F4E
:100B680015D100207047C36AB3F1C07F11D00020AF
:100B78007047C36A13F0807F01D0012070470020BE
:100B880070470120704701207047012070470120FD
:100B980070470120704701207047000070B5044677
:100BA800FFF7D8FC002C5BD00546002384F83430CE
:100BB800022384F835302268136823F00103136098
:100BC80023681A6812F0010F0AD0FFF7C3FC401B14
:100BD8000528F5D920236365032084F8350070BD06
:100BE8001A68204810406168A2680A43E1680A430D
:100BF80021690A4361690A43A1690A43E1690A4311
:100C0800216A0A430243616A04291ED01A602668D1
:100C1800756925F00705636A1D43042B07D1A36A8C
:100C28001D43E36A1BB12046FFF770FF90B9756159
:100C38002046FFF74DFFE26D3F239340836000207D
:100C48006065012384F83530C9E7E16A206B014308
:100C58000A43DBE740236365012084F83500BEE7DB
:100C68000120BCE73F8010F090F83530DBB2022B52
:100C780003D08023436501207047052380F8353071
:100C88000268136823F00103136000207047000016
:100C9800F0B583B0044600230193724B1D68724B74
:100CA800A3FB0535AD0A876D3E68C26D08239340E6
:100CB800334210D003681A6812F0040F0BD01A6878
:100CC80022F004021A60C26D08239340BB60436D92
:100CD80043F001034365E26D01239340334209D099
:100CE8002268526912F0800F04D0BB60636D43F034
:100CF80002036365E26D04239340334209D02268FE
:100D0800126812F0020F04D0BB60636D43F0040355
:100D18006365E26D10239340334224D02268126841
:100D280012F0080F1FD0BB6023681A6812F4802FD6
:100D38000DD01B6813F4002F04D1236C9BB12046FF
:100D4800984710E0A36C73B1204698470BE01A68E7
:100D580012F4807F03D11A6822F008021A60236C0B
:100D68000BB120469847E26D20239340334255D07B
:100D78002268126812F0100F50D0BB6094F835301A
:100D8800DBB2052B0ED023681A6812F4802F33D0FB
:100D98001B6813F4002F2AD1636C002B3ED0204629
:100DA80098473BE02268136823F016031360226813
:100DB800536923F080035361236CA3B1226813683D
:100DC80023F008031360E26D3F239340BB600023C8
:100DD80084F83430012384F83530236D002B3FD05C
:100DE800204698473CE0A36C002BE7D1EBE7E36B88
:100DF800A3B12046984711E01A6812F4807F09D100
:100E08001A6822F010021A60002384F83430012393
:100E180084F83530E36B0BB120469847636DFBB11E
:100E2800636D13F0010F17D0052384F8353022685D
:100E3800136823F001031360019B01330193AB4254
:100E480004D823681B6813F0010FF5D1002384F838
:100E58003430012384F83530E36C0BB120469847D1
:100E680003B0F0BD10000020B5814E1B90F835008E
:100E78007047000000230F2B00F2D780F0B482B037
:100E880039E0072200E00022B2403A430234674EBC
:100E980046F82420664A1468EA4302EA04064F68C2
:100EA80017F4803F01D045EA0406614C2660646867
:100EB80002EA04064F6817F4003F01D045EA040629
:100EC8005B4C6660A46802EA04064F6817F4801F4A
:100ED80001D045EA0406564CA660E46822404E68F4
:100EE80016F4001F01D045EA0402514CE2600133B8
:100EF8000F2B00F2978001229A400C6804EA020541
:100F0800AA42F4D14C68022C01D0122C10D1DE0870
:100F1800083650F826C003F00704A7000F24BC4089
:100F28002CEA040C0C69BC4044EA0C0440F8264046
:100F380004685F000326BE40F64306EA040C4C68CA
:100F480004F00304BC4044EA0C0404604C6804F157
:100F5800FF3CBCF1010F03D9112C01D0122C10D188
:100F6800846806EA040CCC68BC4044EA0C0484603B
:100F7800446824EA02024C68C4F300149C401443F9
:100F88004460C26816408A68BA403243C2604A6800
:100F980012F0805FABD000220192264A546C44F4D0
:100FA80080445464526C02F480420192019A9C0875
:100FB800A61C1E4A52F8267003F0030296000F2260
:100FC800B24027EA02071C4A90423FF45CAF02F5A0
:100FD800806290421AD002F58062904218D002F5E1
:100FE8008062904216D002F58062904214D002F5D9
:100FF8008062904212D002F58062904210D002F5D1
:10100800806290423FF43DAF08223DE701223BE772
:10101800022239E7032237E7042235E7052233E7BE
:10102800062231E702B0F0BC704770470038014033
:10103800003C0140003802400000024012B9090497
:10104800816170478161704790F83E30DBB2402B78
:101058000AD00369B3F5804F15D0036D002B36D045
:10106800036D012B3DD07047036D2BB9436C0268AB
:1010780003F0FE0313617047436C026843F00103F9
:10108800DBB21361704790F83D30DBB2212B0FD0F3
:10109800436C026843F00103DBB21361436B6BB12D
:1010A800DB6B7BB10268536843F40063536070479D
:1010B800436C026803F0FE031361EFE7826B002ABA
:1010C800EED1D0E7836BDB6B002BEBD1CBE7436C26
:1010D800C3F3C813026803F0060343F0F003136177
:1010E8007047436CC3F3C813026803F0060343F068
:1010F800F1031361B7E7436C0268DBB21361436B1A
:101108003BB1DB6B4BB10268536843F40063536037
:101118007047826B002AF4D1FAE7836BDB6B002BF4
:10112800F1D1F5E710B48BB090F83E30DAB2C16A6D
:10113800046B90F83D30DBB2222B0BD000230993CF
:1011480003685A6909929B690993099B0BB05DF87A
:10115800044B7047036D0BB9402A17D0036D1BB9B8
:101168000369B3F5404F19D0438D9BB2002B25D1AD
:10117800029303685A6902929A690292029A1A685B
:1011880042F400721A6000230365DFE700930368E6
:101198005A6900929B690093009BD7E7002301934B
:1011A80003685A6901929A690192019A1A6842F48D
:1011B80080721A60036D01330365C7E7438D9BB2E4
:1011C800012B25D0438D9BB2022B7BD0026813687C
:1011D80043F48063136003685A6812F4006F0ED0FA
:1011E80011F5803F07D0012905D0082903D010291F
:1011F80001D0202903D15A6842F480525A60002352
:10120800089303685A6908929B690893089BBAE790
:1012180011F5803F11D0082934D0202932D0122C62
:101228002ED0042940D002293ED010293CD0026893
:10123800136823F4806313603BE00268136823F4A7
:101248008063136003685A6812F4006F0CD01A6840
:1012580022F480621A600023039303685A69039298
:101268009B690393039B8EE7002204925A690492B8
:101278009A690492049A1A6842F400721A6082E722
:101288000129CED00268136823F480631360002319
:10129800069303685A6906929A690692069A1A682A
:1012A80042F400721A606EE70268136843F48063C0
:1012B80013600023059303685A6905929B69059397
:1012C800059B60E704290ED002290CD010290AD00A
:1012D8000268136823F4806313600268136843F498
:1012E8000063136004E00268136843F480631360CA
:1012F80003685A6812F4006F0ED011F5803F07D0CA
:10130800012905D0082903D0102901D0202903D1AB
:101318005A6842F480525A600023079303685A6956
:1013280007929B690793079B2DE7438D9BB253B1A7
:10133800426A036812781A61436A01334362438D33
:10134800013B9BB243857047438D9BB253B1036801
:101358001A69436A1A70436A01334362438D013B39
:101368009BB24385704703685A6912F4806F11D0A5
:101378006FF480625A6100230363202280F83D20C5
:1013880080F83E30026C42F00402026480F83C307F
:101398000120704700207047C36AB3F52A0F04D0B4
:1013A800C36AB3F12A4F03D070470123C362704761
:1013B8000823C362F8E7F8B506460C4617461D46EB
:1013C80022E0FFF7C7F8069BC01AA84200D8DDB98B
:1013D80000233363202286F83D2086F83E30326CA5
:1013E80042F02002326486F83C3001201AE033686B
:1013F8005B6924EA03039BB2B3FA83F35B099F4258
:101408000FD1B5F1FF3FDCD1C4F30743012BEED078
:1014180033689B6924EA03039BB2B3FA83F35B093D
:10142800EDE70020F8BDF8B504460D4616461F4600
:101438003CE01A6842F400721A6023686FF4806214
:101448005A6100232363202284F83D2084F83E302B
:10145800226C42F00402226484F83C30012033E01C
:10146800FFF778F8C01BB04200D8FEB90023236309
:10147800202284F83D2084F83E30226C42F020027D
:10148800226484F83C3001201EE023685B6925EA69
:1014980003039BB2003318BF0123A3B123685A6921
:1014A80012F4806FC5D1B6F1FF3FD9D1C5F3074318
:1014B800012BEAD023689B6925EA03039BB200331A
:1014C80018BF0123E9E70020F8BD0000F0B583B09C
:1014D80004460F4615461E46C36A082B0DD0012B3D
:1014E8000BD013F5803F08D0036B122B0AD102688A
:1014F800136843F48073136004E02268136843F4AC
:101508008073136000962B4600224FF0011120468D
:10151800FFF751FF18BB2369B3F5804F0DD123683E
:1015280007F0FE071F6133462A4610492046FFF799
:101538007AFF0346A0B1012312E0FB11226803F0F1
:10154800060343F0F003136133462A460849204650
:10155800FFF769FF38B92368FFB21F61E3E701238A
:10156800184603B0F0BD0123FAE700BF02000100EE
:101578000800010070B504460D46164623685B69ED
:1015880013F0800F1CD12046FFF7EDFED0B9B5F15E
:10159800FF3FF3D0FEF7DEFF801BA84201D8002DE5
:1015A800ECD100232363202284F83D2084F83E30C8
:1015B800226C42F02002226484F83C30012000E0D2
:1015C800002070BD0120FCE770B504460D461646A4
:1015D80023685B6913F0040F1CD12046FFF7C3FE94
:1015E800D0B9B5F1FF3FF3D0FEF7B4FF801BA84296
:1015F80001D8002DECD100232363202284F83D205C
:1016080084F83E30226C42F02002226484F83C3098
:10161800012000E0002070BD0120FCE7002800F058
:10162800BE80F8B5044690F83D30002B6BD02423DB
:1016380084F83D302268136823F00103136001F039
:101648001FF96268584B9A4262D8584B98428CBF2F
:1016580000230123002B40F0A480554BA3FB00235B
:101668009B0C21684A6822F03F021A434A602568A9
:101678002A6A22F03F0266684B498E424ED80133EF
:1016880013432B622568E96921F44F4121F0FF01DA
:101698006368454A93424BD801385B00B0FBF3F3CB
:1016A8000133C3F30B03042B38BF04230B43EB6153
:1016B80021680B6823F0C003E269206A02431343E0
:1016C8000B6021688B6823F4034323F0FF0322692E
:1016D800E068024313438B602168CB6823F0FF0363
:1016E8006269A06902431343CB602268136843F020
:1016F8000103136000202064202384F83D30206318
:1017080084F83E00F8BD80F83C3001F0ADFE8EE76D
:10171800284B98428CBF002301239BE74FF4967116
:1017280001FB03F32449A1FB03139B090133A7E73A
:10173800A268BAB9461E03EB4307B6FBF7F60136B3
:10174800C6F30B06B6FA86F6760936BBC2B9013877
:1017580003EB4303B0FBF3F30133C3F30B0242F48F
:101768000043A3E7461E03EB830707EB8707B6FB97
:10177800F7F60136C6F30B06B6FA86F67609E4E7FD
:10178800013803EB830303EB8303B0FBF3F201326D
:10179800C2F30B0242F4404388E7012386E70120A5
:1017A80070470120AEE700BFA08601007F841E00BD
:1017B80083DE1B43FF083D00D34D62102DE9F04145
:1017C80084B004460E4690461F46FEF7C3FE94F8C2
:1017D8003D30DBB2202B04D00226304604B0BDE8F1
:1017E800F08105460090192301224F492046FFF752
:1017F800E2FD002840F0918094F83C30012B00F085
:101808008E80012384F83C3023681A6812F0010F97
:1018180003D11A6842F001021A602268136823F49F
:1018280000631360212384F83D30102384F83E3090
:1018380000232364C4F824806785638D23853B4B8C
:10184800E3622B460A9A31462046FFF73FFE0646DA
:10185800002866D10023039323685A6903929B6981
:101868000393039B12E0236C042B01D00126B4E7F9
:101878002268136843F4007313600126ADE72A4613
:101888000A992046FFF7A0FE00282CD1238D002BB3
:1018980035D02A460A992046FFF76CFE0028E2D187
:1018A800626A236812781A61616A4B1C6362638DED
:1018B800013B9BB26385238D013B9BB22385226844
:1018C800506910F0040FDAD0002BD8D04B78136190
:1018D800636A01336362638D013B9BB26385238D29
:1018E800013B2385CBE7236C042B01D0012674E749
:1018F8002268136843F40073136001266DE72268B9
:10190800136843F400731360202384F83D300023E8
:1019180084F83E3084F83C305FE702265DE7022613
:101928005BE7012659E700BF020010000000FFFF37
:1019380070477047704708B590F83D30DAB2438D6C
:101948009BB27BB1416A036809781961436A013324
:101958004362438D013B9BB24385438D9BB20BB9D8
:10196800292A00D008BD0268536823F480635360B5
:1019780021230363282380F83D30FFF7DBFFF1E7DD
:10198800704708B590F83D30DAB2438D9BB27BB111
:1019980003681969436A1970436A01334362438DC6
:1019A800013B9BB24385438D9BB20BB92A2A00D0D9
:1019B80008BD0268536823F48063536022230363DD
:1019C800282380F83D30FFF7DBFFF1E7704708B5C3
:1019D80090F83D3003F02803282B07D003686FF0F8
:1019E80002025A61002380F83C3008BD026853683F
:1019F80023F48063536011F0040F0BD0002311F01F
:101A0800800F09D18289002180F83C101946FFF720
:101A1800DDFFEAE70123F2E7028BF4E7704770473E
:101A280010B590F83D30DBB290F83E20D2B2C46ACF
:101A3800018D09B9212B04D0212B3BD0402A37D066
:101A480010BD082C04D0202C02D014F5803F19D1E9
:101A58000268536823F4E06353600268136843F430
:101A68000073136000230363202380F83D3090F84F
:101A78003E30DBB2402B15D0002380F83E30FFF714
:101A880057FFDDE70268536823F4E06353601123CE
:101A98000363002380F83E30202380F83D30FFF7B1
:101AA80047FFCDE7002380F83E30FFF7B8FFC7E7D0
:101AB800222BC5D1438D9BB283B190F83E30DBB267
:101AC800402B11D0426A036812781A61436A0133C5
:101AD8004362438D013B9BB24385B1E7026853687B
:101AE80023F480635360ABE7036D9BB9C36C012B90
:101AF80008D0836CC3F3072302681361036D0133B5
:101B080003659DE7836C0268DBB21361036D0233E2
:101B1800036595E7036D012B18D0036D022B8FD158
:101B280090F83D30DBB2222B18D090F83D30DBB274
:101B3800212B85D1426A036812781A61436A0133FE
:101B48004362438D013B9BB2438579E7836C02680E
:101B5800DBB21361036D0133036571E70268136833
:101B680043F4807313606BE708B5C26A90F83D30A0
:101B7800DBB2212B00D008BD438D9BB203BB082AE2
:101B880004D0202A02D012F5803F25D1026853687C
:101B980023F4E06353600268136843F4007313602E
:101BA80000230363202380F83D3090F83E30DBB2F9
:101BB800402B21D0002380F83E30FFF7B9FEDAE74A
:101BC800426A036812781A61436A01334362438D9B
:101BD800013B9BB24385CEE70268536823F4E06378
:101BE800536011230363002380F83E30202380F8DC
:101BF8003D30FFF79DFEBEE7002380F83E30FFF73B
:101C08000EFFB8E7704708B590F83D30DBB2222BDD
:101C180000D008BD438D9BB2032B14D903681A6901
:101C2800436A1A70436A01334362438D013B9BB296
:101C38004385438D9BB2032BEBD10268536823F491
:101C480080635360E5E7C26A022AE2D0012BE0D83C
:101C58000268136823F4806313600268536823F4EE
:101C6800E063536003681A69436A1A70436A013370
:101C78004362438D013B9BB24385202380F83D306E
:101C880090F83E30DBB2402B07D0002380F83E307E
:101C980012230363FFF74DFEBBE7002380F83E30B5
:101CA8000363FFF7AFFFB4E708B5C26A438D9BB281
:101CB800042B13D0438D9BB2032B20D0438D9BB2B2
:101CC800022B36D003681A69436A1A70436A0133D3
:101CD8004362438D013B9BB243850FE00268536822
:101CE80023F48063536003681A69436A1A70436A6D
:101CF80001334362438D013B9BB2438508BD0168B4
:101D08004B6823F480634B60042A06D0022A04D06F
:101D18000268136823F48063136003681A69436ACE
:101D28001A70436A01334362438D013B9BB243857A
:101D3800E4E7012A0BD0102A09D0042A36D0022A57
:101D480034D00268136843F40073136004E0026837
:101D5800136823F48063136003681A69436A1A706E
:101D6800426A531C4362438D013B9BB2438503681F
:101D78001B695370436A01334362438D013B9BB235
:101D880043850268536823F440735360202380F826
:101D98003D3090F83E30DBB2402B0DD0002380F868
:101DA8003E3012230363FFF7C4FDA7E702681368F8
:101DB80043F480631360CFE7002380F83E30036369
:101DC800FFF720FF9AE77047704710B5806B90F8CF
:101DD8003D20416B0023CB63816BCB630468216892
:101DE80021F4806121604385416B0B65816B0B6534
:101DF80001680B6823F001030B6090F83D30DBB2FB
:101E0800602B0DD0D2B202F02802282A12D020234B
:101E180080F83D30002380F83E30FFF7D4FF10BD36
:101E2800202380F83D30002380F83E300364FFF71C
:101E3800CBFFF4E70268136843F0010313600268FC
:101E4800136843F48063136000230363282380F836
:101E58003D30E2E710B5044690F83D30DBB290F82B
:101E68003E20D2B2102A33D003F02802282A37D0D5
:101E78002268526812F4006F04D1602B02D020232C
:101E880084F83D300023236384F83E3023685A6881
:101E980012F4006F48D05A6822F400625A60626BEC
:101EA80092F83530DBB2012B20D0424B1365606BC2
:101EB800FEF7DAFE002849D02268136823F00103F0
:101EC8001360202384F83D30606B036D98473DE034
:101ED800222BC9D101680A6822F400620A60C3E7AC
:101EE80000232363282384F83D30CFE7A36B314ACE
:101EF8001A65A06BFEF7B8FE40B323685A6912F062
:101F0800400F05D01A69636A1A70636A0133636205
:101F18002268136823F001031360202384F83D30FE
:101F2800A06B036D984711E094F83D20D2B2602A67
:101F380016D05A6912F0400F05D01A69636A1A70F0
:101F4800636A013363622046FFF73DFF94F83D3032
:101F5800DBB2226C12F0040F01D0282B18D010BD70
:101F6800202284F83D20002222645A6912F0400F92
:101F780005D01A69636A1A70636A0133636222685A
:101F8800136823F0010313602046FFF71DFFDDE708
:101F98002268536823F4E0635360074BE36200232D
:101FA8002363202284F83D2084F83E302046FFF742
:101FB80035FDD4E7D31D00080000FFFF30B583B01E
:101FC800044690F83D50EDB20268536823F4E0638C
:101FD80053600023019303685A6901921A6842F01A
:101FE80001021A60019B0268136823F4806313607E
:101FF80003685A6812F4006F38D0222D21D02A2D98
:102008001FD0426B1268526892B24285428D92B2DA
:102018001AB1026C42F0040202645A6822F40062A7
:102028005A60606BFEF722FF01281FD0636B434A9A
:102038001A65606BFEF718FEC0B1606B036D9847B8
:1020480014E0A26B1268526892B26285628D92B2F5
:102058001AB1226C42F0040222645A6822F4006227
:102068005A60A06BFEF702FF012840D1638D9BB236
:1020780023B323685A6912F0040F09D01A69636AF6
:102088001A70636A01336362638D013B9BB2638597
:1020980023685A6912F0400F09D01A69636A1A70E6
:1020A800636A01336362638D013B9BB26385638D11
:1020B8009BB21BB1236C43F004032364236C13BB52
:1020C8002A2D25D094F83D30DBB2282B29D0236B5C
:1020D800222B01D0222D19D100232363202284F83A
:1020E8003D2084F83E302046FFF74AFC0EE0A36B03
:1020F800124A1A65A06BFEF7B7FD0028B6D0A06B90
:10210800036D9847B2E72046FFF7A4FE03B030BD41
:1021180000232363282384F83D302046FFF730FC52
:10212800D0E7074BE36200232363202284F83D2095
:1021380084F83E302046FFF771FCE7E7D31D00081E
:102148000000FFFF70B5044602685568C66A90F83B
:102158003E30DBB290F83D10102B14D0C8B2402BA3
:1021680011D0236C002B71D05369002113F0020F9A
:102178006FD015F4007F6CD0236C03B191692046B1
:10218800FFF725FC70BD9069536913F0010105D173
:10219800B6F52A0FF6D0B6F12A4FF3D011B115F4DF
:1021A800007F25D113F0080F02D015F4007F26D147
:1021B80013F0020F02D015F4007F24D110F0040FA1
:1021C80029D0526812F4006FDCD113F0800F05D0CB
:1021D80015F4806F02D013F0040F18D013F0040F19
:1021E800D0D015F4007FCDD02046FFF7BDFCC9E75D
:1021F8002046FFF7D1F82046FEF726FFC2E7204623
:10220800FEF779FFBEE72046FEF78CFFBAE72046C7
:10221800FFF706FCB6E7526812F4006FB2D113F06C
:10222800400F05D015F4806F02D013F0040F09D0C9
:1022380013F0040FA6D015F4007FA3D02046FFF7B3
:1022480033FD9FE72046FFF7DEFC9BE79169536962
:102258008CE713F0100F02D015F4007F17D1212856
:1022680019D0292817D013F0400F05D015F4806F26
:1022780002D013F0040F27D013F0040F82D015F406
:10228800007F3FF47FAF2046FFF75EF87AE72046ED
:10229800FFF794FE76E713F0800F05D015F4806FF2
:1022A80002D013F0040F0BD013F0040F3FF46AAF01
:1022B80015F4007F3FF466AF2046FFF736F861E774
:1022C8002046FFF738FB5DE72046FFF75AFB59E742
:1022D800002800F0BB8170B582B00446036813F093
:1022E800010F3BD0A74B9B6803F00C03042B2CD0A9
:1022F800A44B9B6803F00C03082B21D06368B3F54B
:10230800803F4FD0B3F5A02F52D09E4B1A6822F4CD
:1023180080321A601A6822F480221A606368002BDF
:1023280050D0FEF717F90546964B1B6813F4003F8B
:1023380014D1FEF70FF9401B6428F5D903208AE170
:10234800904B5B6813F4800FD8D08E4B1B6813F446
:10235800003F03D06368002B00F07A81236813F0F4
:10236800020F55D0874B9B6813F00C0F3ED0854B5E
:102378009B6803F00C03082B33D0E368002B68D06C
:10238800814B01221A60FEF7E5F805467D4B1B6874
:1023980013F0020F54D1FEF7DDF8401B0228F5D9DF
:1023A800032058E1774A136843F480331360B5E794
:1023B800744B1A6842F480221A601A6842F4803218
:1023C8001A60ABE7FEF7C6F805466E4B1B6813F4B8
:1023D800003FC3D0FEF7BEF8401B6428F5D90320A0
:1023E80039E1684B5B6813F4800FC6D1654B1B68F5
:1023F80013F0020F04D0E368012B01D001202AE179
:10240800604A136823F0F803216943EAC1031360A3
:10241800236813F0080F40D0636963B35B4B012254
:102428001A60FEF797F80546564B5B6F13F0020FDC
:1024380033D1FEF78FF8401B0228F5D903200AE1B3
:10244800504A136823F0F803216943EAC103136073
:10245800DEE74D4B00221A60FEF77CF80546494B33
:102468001B6813F0020FD3D0FEF774F8401B022844
:10247800F5D90320EFE0454B00221A60FEF76AF811
:102488000546404B5B6F13F0020F06D0FEF762F86B
:10249800401B0228F5D90320DDE0236813F0040F60
:1024A80079D0384B1B6C13F0805F33D10023019334
:1024B800344B1A6C42F080521A641B6C03F0805340
:1024C8000193019B0125324B1B6813F4807F23D0B5
:1024D800A368012B34D0052B38D02A4B1A6F22F071
:1024E80001021A671A6F22F004021A67A368002B08
:1024F80036D0FEF72FF80646224B1B6F13F0020F5B
:1025080048D1FEF727F8801B41F288339842F3D967
:102518000320A0E00025D6E71D4A136843F4807322
:102528001360FEF717F80646194B1B6813F4807FF3
:10253800CED1FEF70FF8801B0228F5D903208AE0D8
:10254800104A136F43F001031367CFE70D4B1A6F5F
:1025580042F004021A671A6F42F001021A67C5E7CF
:10256800FDF7F8FF0646074B1B6F13F0020F11D05B
:10257800FDF7F0FF801B41F288339842F3D903201E
:1025880069E000BF0038024000004742800E474221
:1025980000700040E5B9A369002B5BD0304A92680F
:1025A80002F00C02082A58D0022B17D02D4B00221B
:1025B8001A60FDF7CFFF0446294B1B6813F0007F14
:1025C80042D0FDF7C7FF001B0228F5D9032042E0DF
:1025D800234A136C23F080531364DCE7214B002259
:1025E8001A60FDF7B7FF05461D4B1B6813F0007F07
:1025F80006D0FDF7AFFF401B0228F5D903202AE0DB
:10260800E369226A1343626A43EA8213A26A5208A0
:10261800013A43EA0243E26A43EA0263104A53601A
:10262800104B01221A60FDF795FF04460C4B1B68FE
:1026380013F0007F06D1FDF78DFF001B0228F5D9A6
:10264800032008E0002006E0002004E00120704795
:10265800012000E0002002B070BD0120FBE700BFB0
:102668000038024060004742014B01221A6070475F
:102678004C004742264B9B6803F00C03042B44D0C4
:10268800082B01D0234870472DE9F04B204B5A689E
:1026980002F03F025B6813F4800F13D01C4B59689B
:1026A800C1F3881100231C48A1FB0001FDF788FD38
:1026B800174B5B68C3F3014301335B00B0FBF3F0D6
:1026C800BDE8F08B124B5B68C3F388131E460027E6
:1026D8005C010025E41A65EB0705A90141EA94614C
:1026E800A001001B61EB0501CB0043EA5073C40055
:1026F800A01943EB07018B0243EA9053840220465A
:1027080019460023FDF75CFDD2E70348704700BF78
:10271800003802400024F40000590001002800F0AD
:102728009D8070B504464F4B1B6803F00F038B4226
:1027380009D2CBB24B4A1370136803F00F038B42D4
:1027480001D0012070BD236813F0020F17D013F0D9
:10275800040F04D0444A936843F4E0539360236819
:1027680013F0080F04D0404A936843F46043936021
:102778003D4A936823F0F003A068034393600D4635
:10278800236813F0010F32D06368012B21D09A1E01
:10279800012A25D9344A126812F0020F60D0324952
:1027A8008A6822F0030213438B60FDF7D3FE0646C6
:1027B8002D4B9B6803F00C036268B3EB820F16D0B5
:1027C800FDF7C8FE801B41F288339842F0D90320F8
:1027D800B8E7254A126812F4003FE0D10120B1E7BA
:1027E800214A126812F0007FD9D10120AAE71D4BB7
:1027F8001B6803F00F03AB4209D9EAB2194B1A70F0
:102808001B6803F00F03AB4201D001209AE723684D
:1028180013F0040F06D0144A936823F4E053E168D8
:102828000B439360236813F0080F07D00E4A936890
:1028380023F46043216943EAC1039360FFF71AFF59
:10284800094B9B68C3F30313084AD35CD840084B71
:1028580018600020FDF734FE002073E70120704760
:1028680001206FE7003C024000380240B039000800
:1028780010000020014B1868704700BF10000020AE
:1028880008B5FFF7F7FF044B9B68C3F38223034A9D
:10289800D35CD84008BD00BF00380240C0390008EA
:1028A80008B5FFF7E7FF044B9B68C3F34233034ABD
:1028B800D35CD84008BD00BF00380240C0390008CA
:1028C8000268D36823F49073D3600268536923F0D5
:1028D80001035361202380F83A30704790F839306B
:1028E800DBB2212B2AD18368B3F5805F16D0036A47
:1028F8005A1C02621A7803685A60C38C013B9BB267
:10290800C384EBB90268D36823F08003D3600268FC
:10291800D36843F04003D36000207047036A1B88E4
:102928000268C3F30803536003691BB9036A0233DF
:102938000362E2E7036A01330362DEE702207047BD
:10294800002070472DE9F84304460268136923F410
:102958004053C1680B43136183680269134342699A
:102968001343C2691A430168CB6823F4164323F062
:102978000C031343CB600268536923F440738169E5
:102988000B435361C369B3F5004F60D00368B84A7D
:10299800934200F0148102F58062934200F00F81A7
:1029A800FFF76EFF00EB800000EB80006568AD006C
:1029B800B0FBF5F5AF4FA7FB05356D092E01FFF705
:1029C8005FFF00EB800000EB80006568AD00B0FBA6
:1029D800F5F9FFF755FF00EB800000EB8000656814
:1029E800AD00B0FBF5F5A7FB05356D094FF06408A0
:1029F80008FB15952D013235A7FB05356D0905F046
:102A0800F0053544FFF73CFF00EB800000EB800049
:102A18006668B600B0FBF6F6FFF732FF00EB800001
:102A280000EB800063689B00B0FBF3F0A7FB00306D
:102A3800400908FB10684FEA081808F13208A7FB9C
:102A48000837C7F3431723682F449F600DE10368D5
:102A5800874A93425BD002F58062934257D0FFF7D2
:102A68000FFF00EB800000EB800065686D00B0FB95
:102A7800F5F5804FA7FB05356D092E01FFF700FF1F
:102A880000EB800000EB800065686D00B0FBF5F995
:102A9800FFF7F6FE00EB800000EB800065686D0034
:102AA800B0FBF5F5A7FB05356D094FF0640808FB89
:102AB8001595ED003235A7FB05356D096D0005F458
:102AC800F8753544FFF7DCFE00EB800000EB800072
:102AD80066687600B0FBF6F6FFF7D2FE00EB8000E2
:102AE80000EB800063685B00B0FBF3F3A7FB0323F4
:102AF8005B0908FB13684FEAC80808F13208A7FB0E
:102B08000837C7F3421723682F449F60ADE0FFF7EB
:102B1800C7FE00EB800000EB800065686D00B0FB2D
:102B2800F5F5544FA7FB05356D092E01FFF7B8FEE3
:102B380000EB800000EB800065686D00B0FBF5F9E4
:102B4800FFF7AEFE00EB800000EB800065686D00CB
:102B5800B0FBF5F5A7FB05356D094FF0640808FBD8
:102B68001595ED003235A7FB05356D096D0005F4A7
:102B7800F8753544FFF794FE00EB800000EB800009
:102B880066687600B0FBF6F6FFF78AFE00EB800079
:102B980000EB800063685B00B0FBF3F3A7FB032343
:102BA8005B0908FB13684FEAC80808F13208A7FB5D
:102BB8000837C7F3421723682F449F6055E0FFF793
:102BC8006FFE00EB800000EB80006568AD00B0FB95
:102BD800F5F5284FA7FB05356D092E01FFF760FEB7
:102BE80000EB800000EB80006568AD00B0FBF5F9F4
:102BF800FFF756FE00EB800000EB80006568AD0033
:102C0800B0FBF5F5A7FB05356D094FF0640808FB27
:102C180015952D013235A7FB05356D0905F0F00531
:102C28003544FFF73DFE00EB800000EB800066684E
:102C3800B600B0FBF6F6FFF733FE00EB800000EBC2
:102C4800800063689B00B0FBF3F0A7FB00304009ED
:102C580008FB10684FEA081808F13208A7FB083784
:102C6800C7F3431723682F449F60BDE8F88300BF6C
:102C7800001001401F85EB512DE9F04105460F4634
:102C880016469846069C2B681B6837EA03030CBF58
:102C980001230023B3421DD1B4F1FF3FF3D02CB17F
:102CA800FDF758FCA0EB0800A042ECD92A68D368CD
:102CB80023F4D073D3602A68536923F00103536166
:102CC800202385F8393085F83A30002385F83830E4
:102CD800032000E00020BDE8F08158B310B5044699
:102CE80090F839300BB3242384F839302268D3683C
:102CF80023F40053D3602046FFF724FE22681369AB
:102D080023F4904313612268536923F02A03536123
:102D18002268D36843F40053D3600020E063202383
:102D280084F8393084F83A3010BD80F8383000F033
:102D380051FDD8E7012070472DE9F04182B01E46C9
:102D480090F83930DBB2202B55D104460D46904619
:102D5800002955D0002A55D090F83830012B53D08F
:102D6800012380F838300023C363212380F83930E9
:102D7800FDF7F0FB0746A4F82480A4F8268010E0AD
:102D880000963B46002280212046FFF775FF002869
:102D98003CD12B882268C3F3080353602369C3B965
:102DA8000235E38C9BB2B3B1E38C013B9BB2E38465
:102DB800A368B3F5805FE3D000963B4600228021EC
:102DC8002046FFF759FF18BB2A7823685A60013557
:102DD800E7E70135E5E700963B460022402120461B
:102DE800FFF74AFF0346A8B9202284F839200022B9
:102DF80084F8382000E00223184602B0BDE8F081CC
:102E08000123F9E70123F7E70223F5E70323F3E7B3
:102E18000323F1E70323EFE7704708B50168CB68A0
:102E280023F04003CB60202380F83930FFF7F4FF0C
:102E3800002008BD704708B590F83A30DBB2222B65
:102E480045D18368B3F5805F0ED0036903BB03687F
:102E58005A68836A591C81621A70C38D013B9BB200
:102E6800C385F3B1002033E0826A036943B903687C
:102E78005B68C3F308031380836A02338362ECE759
:102E880003685B68DBB21380836A01338362E4E71B
:102E980003685B68826A511C816203F07F031370C8
:102EA800DBE70268D36823F02003D3600268D368A5
:102EB80023F48073D3600268536923F001035361DC
:102EC800202380F83A30FFF7B5FF002000E0022009
:102ED80008BD704710B5044602681368D168526986
:102EE80013F00F0005D113F0200F02D011F0200FBE
:102EF80053D1002867D012F0010202D111F4907F5B
:102F080061D013F0010F06D011F4807F03D0E06B7D
:102F180040F00100E06313F0040F04D01AB1E06B35
:102F280040F00200E06313F0020F04D01AB1E06B26
:102F380040F00400E06313F0080F04D01AB1E26B0C
:102F480042F00802E263E26B002A48D013F0200F37
:102F580002D011F0200F24D123685B6903F04003ED
:102F6800E26B12F0080F00D13BB32046FFF7A8FC34
:102F780023685A6912F0400F1BD05A6922F04002A8
:102F88005A61636B8BB11A4A1A65606BFDF76CFE68
:102F980028B3606B036D984721E02046FFF74BFF8D
:102FA8001DE02046FFF747FFD6E72046FFF791FFD1
:102FB80015E02046FFF78DFF11E02046FFF789FF57
:102FC8000023E3630BE013F0800F02D011F0800FB1
:102FD80006D113F0400F02D011F0400F04D110BDFC
:102FE8002046FFF77BFCFAE72046FFF716FFF6E7D7
:102FF800FD2F000808B5806B0023C385C384FFF745
:1030080068FF08BD00B587B001EB410253000344D7
:10301800144A02EB8303D3ED007A30EE670ADFED42
:10302800127A20EE270A9FED117AC0EE077AFCEE9D
:10303800E77ACDED037A9DF80C3000228DF8142044
:1030480011B110228DF814208DF81530084B195C39
:1030580064230093022305AA0648FEF7AFFB07B0D6
:103068005DF804FB34000020000080430050C34793
:1030780008000020F400002000B585B0002300936C
:103088000193029303931548154A02604FF40032E6
:10309800426083600361037680F82030C362114A7E
:1030A8008262C3600122C26180F830304261FDF75C
:1030B80005FB60B90023009301220192029369463F
:1030C8000648FDF7D1FB28B905B05DF804FB00F010
:1030D800DBFAEFE700F0D8FAF6E700BFAC00002013
:1030E800002001400100000F00B585B000230093C7
:1030F8000193029303931548154A02604FF4003276
:10310800426083600361037680F82030C362114A0D
:103118008262C3600122C26180F830304261FDF7EB
:10312800CDFA60B900230093012201920293694607
:103138000648FDF799FB28B905B05DF804FB00F0D7
:10314800A3FAEFE700F0A0FAF6E700BF640000205A
:10315800002101400100000F30B58FB00023099312
:103168000A930B930C930D9303684E4A934204D031
:103178004D4A93424BD00FB030BD002401944B4BC5
:103188005A6C42F480725A645A6C02F4807201924A
:10319800019A02941A6B42F004021A631A6B02F045
:1031A80004020292029A03941A6B42F001021A6313
:1031B8001A6B02F001020392039A04941A6B42F00C
:1031C80002021A631B6B03F002030493049B072398
:1031D800099303250A9509A93548FDF74BFEFF23F6
:1031E80009930A950B9409A93248FDF743FE0995FE
:1031F8000A950B9409A93048FDF73CFE2246214662
:103208001220FDF70DFC1220FDF73EFCB3E7002469
:103218000594264B5A6C42F400725A645A6C02F4B4
:1032280000720592059A06941A6B42F004021A631A
:103238001A6B02F004020692069A07941A6B42F07F
:1032480001021A631A6B02F001020792079A0894A6
:103258001A6B42F002021A631B6B03F00203089315
:10326800089B0723099303250A9509A91048FDF728
:1032780001FEFF2309930A950B9409A90D48FDF750
:10328800F9FD09950A950B9409A90B48FDF7F2FD7C
:10329800224621461220FDF7C3FB1220FDF7F4FB5E
:1032A80069E700BF002001400021014000380240CA
:1032B80000080240000002400004024010B582B03D
:1032C800002400941A4B1A6B42F400121A631A6B0A
:1032D80002F400120092009A01941A6B42F48002E0
:1032E8001A631B6B03F480030193019B224621465A
:1032F8000D20FDF795FB0D20FDF7C6FB2246214664
:103308002F20FDF78DFB2F20FDF7BEFB224621461F
:103318003A20FDF785FB3A20FDF7B6FB2246214609
:103328004620FDF77DFB4620FDF7AEFB02B010BD41
:103338000038024070B58AB00024059406940794BA
:10334800089409940094344B1A6B42F004021A63EF
:103358001A6B02F004020092009A01941A6B42F070
:1033680080021A631A6B02F080020192019A029499
:103378001A6B42F001021A631A6B02F00102029200
:10338800029A03941A6B42F002021A631A6B02F053
:1033980002020392039A04941A6B42F008021A6319
:1033A8001B6B03F008030493049B1C4E2246202148
:1033B8003046FDF743FE4FF6F8730593032506954F
:1033C800079405A91648FDF755FD4FF2DC33059320
:1033D8000695079405A93046FDF74CFD4FF41943AF
:1033E80005930695079405A90E48FDF743FD0423A8
:1033F80005930695079405A90B48FDF73BFD202387
:103408000593012306930794089405A93046FDF710
:1034180031FD0AB070BD00BF003802400004024010
:103428000008024000000240000C024008B50B48AA
:103438000B4B03600B4B436000238360C3604FF466
:103448008042026143618361C3610362FEF7E6F86B
:1034580000B908BD00F018F9FBE700BFF400002030
:1034680000580040A086010070B588B0002303937F
:1034780004930593069307930268344B9A4201D04C
:1034880008B070BD044600250195314E336B43F0FA
:1034980002033363336B03F002030193019B4FF480
:1034A8004063039312230493012305930323069394
:1034B8000423079303A92748FDF7DCFC0295336C26
:1034C80043F480033364336C03F480030293029B58
:1034D8002148224B03604FF0606343608560C560FC
:1034E8004FF48063036145618561C561056245628A
:1034F800FDF754FB18BB184BA3639C631848194B82
:1035080003604FF060634360402383600023C3601F
:103518004FF48062026143618361C3610362436265
:10352800FDF73CFB70B90E4B63639C6300221146A8
:103538002120FDF775FA2120FDF7A6FAA0E700F093
:10354800A3F8D8E700F0A0F8EDE700BF0058004066
:103558000038024000040240480100204060024058
:10356800A8010020B860024030B595B03022002193
:1035780008A800F001FA0024039404940594069422
:10358800079401941D4B1A6C42F080521A641B6C0C
:1035980003F080530193019B0294194B1A6842F47B
:1035A80080421A601B6803F480430293029B012344
:1035B80008934FF4A023099302250E954FF4800336
:1035C8000F930E231093A0231193129504231393A2
:1035D80008A8FEF77DFE0F230393049505944FF486
:1035E800A05306934FF480530793032103A8FFF7D2
:1035F80095F8FFF739F815B030BD00BF0038024024
:103608000070004000B583B0FCF77EFFFFF7ACFF09
:10361800FFF790FEFFF752FEFFF72EFDFFF764FD60
:10362800FFF704FF00F0BCF8134C002220212046CD
:10363800FDF704FD6420FCF793FF012220212046BA
:10364800FDF7FCFC7B238DF8073000219FED0B0A6A
:103658000120FFF7D7FC01219FED090A0846FFF773
:10366800D1FC01231A460DF107010648FFF764FB58
:103678006420FCF775FFF4E70004024000004842AC
:103688000000A442C80200207047000082B0002158
:1036980000910B4B5A6C42F480425A645A6C02F403
:1036A80080420092009A01911A6C42F080521A648A
:1036B8001B6C03F080530193019B02B0704700BF5D
:1036C800003802407047FEE7FEE7FEE7FEE7704776
:1036D8007047704708B5FCF731FF08BD08B50248C8
:1036E800FDF7D6FA08BD00BF4801002008B5034819
:1036F800FDF712F80248FDF70FF808BDAC000020EE
:103708006400002008B50248FEF71CFD08BD00BF94
:10371800F400002008B50248FFF7DCFB08BD00BF35
:10372800C802002008B50248FDF7B2FA08BD00BF7C
:10373800A801002008B50248FDF7AAFA08BD00BF95
:103748006802002008B50248FDF7A2FA08BD00BFCC
:10375800080200200F49D1F8883043F47003C1F8FB
:1037680088300D4B1A6842F001021A6000209860F8
:103778001A6822F0847222F480321A60074A5A606A
:103788001A6822F480221A60D8604FF000638B60B8
:10379800704700BF00ED00E0003802401030002400
:1037A80008B50A480A4B03604FF4E133436000232D
:1037B8008360C36003610C2242618361C361FFF7C8
:1037C8008CFA00B908BDFFF75FFFFBE7C8020020CD
:1037D8000010014030B589B000230393049305938A
:1037E80006930793026803F1804303F588339A42EE
:1037F80001D009B030BD04460025019503F5943386
:103808005A6C42F010025A645A6C02F0100201928B
:10381800019A02951A6B42F001021A631B6B03F0BE
:1038280001030293029B4FF4C063039302230493A2
:1038380001230593032306930723079303A922482B
:10384800FDF718FB2148224B03604FF000634360EB
:103858008560C5604FF48063036145618561C5611A
:103868004FF4803303624562FDF798F928BB174B84
:1038780063639C631748184B03604FF00063436011
:10388800402383600023C3604FF480620261436178
:103898008361C3614FF4803202624362FDF77EF9AF
:1038A80070B90C4B23639C63002211462520FDF759
:1038B800B7F82520FDF7E8F89BE7FFF7E5FED6E720
:1038C800FFF7E2FEEDE700BF0000024068020020BB
:1038D8004064024008020020B8640240DFF834D097
:1038E800002103E00C4B5B58435004310B480C4B50
:1038F80042189A42F6D30B4A02E0002342F8043BEE
:10390800094B9A42F9D3FFF725FF00F011F8FFF7AA
:1039180079FE704700000220D83900080000002016
:10392800140000201400002008030020FEE7000017
:1039380070B50D4E0D4CA41BA4100025A54209D14D
:103948000B4E0C4C00F020F8A41BA4100025A54237
:1039580005D170BD56F8253098470135EEE756F881
:10396800253098470135F2E7D0390008D0390008EA
:10397800D0390008D439000802440346934200D1E4
:10398800704703F8011BF9E7F8B500BFF8BC08BC9D
:103998009E467047F8B500BFF8BC08BC9E46704705
:1039A80000061016000610160000000000000000B7
:1039B80001020304060708090000000001020304CD
:0839C80030C8FF7F0100000080
:0439D000AD0100083D
:0439D400890100085D
:1039D800010000001000000050545C5856520000CE
:0439E8000024F400C3
:04000005080038E5D2
:00000001FF
